{
  "_format": "hh-sol-artifact-1",
  "contractName": "MyNFT",
  "sourceName": "contracts/MyNFT.sol",
  "abi": [
    {
      "inputs": [],
      "stateMutability": "nonpayable",
      "type": "constructor"
    },
    {
      "anonymous": false,
      "inputs": [
        {
          "indexed": true,
          "internalType": "address",
          "name": "owner",
          "type": "address"
        },
        {
          "indexed": true,
          "internalType": "address",
          "name": "approved",
          "type": "address"
        },
        {
          "indexed": true,
          "internalType": "uint256",
          "name": "tokenId",
          "type": "uint256"
        }
      ],
      "name": "Approval",
      "type": "event"
    },
    {
      "anonymous": false,
      "inputs": [
        {
          "indexed": true,
          "internalType": "address",
          "name": "owner",
          "type": "address"
        },
        {
          "indexed": true,
          "internalType": "address",
          "name": "operator",
          "type": "address"
        },
        {
          "indexed": false,
          "internalType": "bool",
          "name": "approved",
          "type": "bool"
        }
      ],
      "name": "ApprovalForAll",
      "type": "event"
    },
    {
      "anonymous": false,
      "inputs": [
        {
          "indexed": false,
          "internalType": "address",
          "name": "sender",
          "type": "address"
        },
        {
          "indexed": false,
          "internalType": "uint256",
          "name": "tokenId",
          "type": "uint256"
        }
      ],
      "name": "NewEpicNFTMinted",
      "type": "event"
    },
    {
      "anonymous": false,
      "inputs": [
        {
          "indexed": true,
          "internalType": "address",
          "name": "from",
          "type": "address"
        },
        {
          "indexed": true,
          "internalType": "address",
          "name": "to",
          "type": "address"
        },
        {
          "indexed": true,
          "internalType": "uint256",
          "name": "tokenId",
          "type": "uint256"
        }
      ],
      "name": "Transfer",
      "type": "event"
    },
    {
      "inputs": [
        {
          "internalType": "address",
          "name": "to",
          "type": "address"
        },
        {
          "internalType": "uint256",
          "name": "tokenId",
          "type": "uint256"
        }
      ],
      "name": "approve",
      "outputs": [],
      "stateMutability": "nonpayable",
      "type": "function"
    },
    {
      "inputs": [
        {
          "internalType": "address",
          "name": "owner",
          "type": "address"
        }
      ],
      "name": "balanceOf",
      "outputs": [
        {
          "internalType": "uint256",
          "name": "",
          "type": "uint256"
        }
      ],
      "stateMutability": "view",
      "type": "function"
    },
    {
      "inputs": [
        {
          "internalType": "uint256",
          "name": "tokenId",
          "type": "uint256"
        }
      ],
      "name": "getApproved",
      "outputs": [
        {
          "internalType": "address",
          "name": "",
          "type": "address"
        }
      ],
      "stateMutability": "view",
      "type": "function"
    },
    {
      "inputs": [],
      "name": "getCurrentMints",
      "outputs": [
        {
          "internalType": "uint256",
          "name": "",
          "type": "uint256"
        }
      ],
      "stateMutability": "view",
      "type": "function"
    },
    {
      "inputs": [],
      "name": "getMaxTotalSupply",
      "outputs": [
        {
          "internalType": "uint256",
          "name": "",
          "type": "uint256"
        }
      ],
      "stateMutability": "view",
      "type": "function"
    },
    {
      "inputs": [
        {
          "internalType": "address",
          "name": "owner",
          "type": "address"
        },
        {
          "internalType": "address",
          "name": "operator",
          "type": "address"
        }
      ],
      "name": "isApprovedForAll",
      "outputs": [
        {
          "internalType": "bool",
          "name": "",
          "type": "bool"
        }
      ],
      "stateMutability": "view",
      "type": "function"
    },
    {
      "inputs": [],
      "name": "makeAnEpicNFT",
      "outputs": [],
      "stateMutability": "nonpayable",
      "type": "function"
    },
    {
      "inputs": [],
      "name": "name",
      "outputs": [
        {
          "internalType": "string",
          "name": "",
          "type": "string"
        }
      ],
      "stateMutability": "view",
      "type": "function"
    },
    {
      "inputs": [
        {
          "internalType": "uint256",
          "name": "tokenId",
          "type": "uint256"
        }
      ],
      "name": "ownerOf",
      "outputs": [
        {
          "internalType": "address",
          "name": "",
          "type": "address"
        }
      ],
      "stateMutability": "view",
      "type": "function"
    },
    {
      "inputs": [
        {
          "internalType": "uint256",
          "name": "tokenId",
          "type": "uint256"
        }
      ],
      "name": "pickRandomColor",
      "outputs": [
        {
          "internalType": "string",
          "name": "",
          "type": "string"
        }
      ],
      "stateMutability": "view",
      "type": "function"
    },
    {
      "inputs": [
        {
          "internalType": "uint256",
          "name": "tokenId",
          "type": "uint256"
        }
      ],
      "name": "pickRandomFirstWord",
      "outputs": [
        {
          "internalType": "string",
          "name": "",
          "type": "string"
        }
      ],
      "stateMutability": "view",
      "type": "function"
    },
    {
      "inputs": [
        {
          "internalType": "uint256",
          "name": "tokenId",
          "type": "uint256"
        }
      ],
      "name": "pickRandomSecondWord",
      "outputs": [
        {
          "internalType": "string",
          "name": "",
          "type": "string"
        }
      ],
      "stateMutability": "view",
      "type": "function"
    },
    {
      "inputs": [
        {
          "internalType": "uint256",
          "name": "tokenId",
          "type": "uint256"
        }
      ],
      "name": "pickRandomThirdWord",
      "outputs": [
        {
          "internalType": "string",
          "name": "",
          "type": "string"
        }
      ],
      "stateMutability": "view",
      "type": "function"
    },
    {
      "inputs": [
        {
          "internalType": "address",
          "name": "from",
          "type": "address"
        },
        {
          "internalType": "address",
          "name": "to",
          "type": "address"
        },
        {
          "internalType": "uint256",
          "name": "tokenId",
          "type": "uint256"
        }
      ],
      "name": "safeTransferFrom",
      "outputs": [],
      "stateMutability": "nonpayable",
      "type": "function"
    },
    {
      "inputs": [
        {
          "internalType": "address",
          "name": "from",
          "type": "address"
        },
        {
          "internalType": "address",
          "name": "to",
          "type": "address"
        },
        {
          "internalType": "uint256",
          "name": "tokenId",
          "type": "uint256"
        },
        {
          "internalType": "bytes",
          "name": "_data",
          "type": "bytes"
        }
      ],
      "name": "safeTransferFrom",
      "outputs": [],
      "stateMutability": "nonpayable",
      "type": "function"
    },
    {
      "inputs": [
        {
          "internalType": "address",
          "name": "operator",
          "type": "address"
        },
        {
          "internalType": "bool",
          "name": "approved",
          "type": "bool"
        }
      ],
      "name": "setApprovalForAll",
      "outputs": [],
      "stateMutability": "nonpayable",
      "type": "function"
    },
    {
      "inputs": [
        {
          "internalType": "bytes4",
          "name": "interfaceId",
          "type": "bytes4"
        }
      ],
      "name": "supportsInterface",
      "outputs": [
        {
          "internalType": "bool",
          "name": "",
          "type": "bool"
        }
      ],
      "stateMutability": "view",
      "type": "function"
    },
    {
      "inputs": [],
      "name": "symbol",
      "outputs": [
        {
          "internalType": "string",
          "name": "",
          "type": "string"
        }
      ],
      "stateMutability": "view",
      "type": "function"
    },
    {
      "inputs": [
        {
          "internalType": "uint256",
          "name": "tokenId",
          "type": "uint256"
        }
      ],
      "name": "tokenURI",
      "outputs": [
        {
          "internalType": "string",
          "name": "",
          "type": "string"
        }
      ],
      "stateMutability": "view",
      "type": "function"
    },
    {
      "inputs": [
        {
          "internalType": "address",
          "name": "from",
          "type": "address"
        },
        {
          "internalType": "address",
          "name": "to",
          "type": "address"
        },
        {
          "internalType": "uint256",
          "name": "tokenId",
          "type": "uint256"
        }
      ],
      "name": "transferFrom",
      "outputs": [],
      "stateMutability": "nonpayable",
      "type": "function"
    }
  ],
  "bytecode": "0x608060405260326007556200002060096200069360201b620014f11760201c565b60085560405180610100016040528060d38152602001620046e260d39139600a9080519060200190620000559291906200076d565b50604051806080016040528060568152602001620047b560569139600b9080519060200190620000879291906200076d565b506040518060a001604052806040518060400160405280600881526020017f76616e696c6c612000000000000000000000000000000000000000000000000081525081526020016040518060400160405280600981526020017f6c6176656e64657220000000000000000000000000000000000000000000000081525081526020016040518060400160405280600e81526020017f70756d706b696e2073706963652000000000000000000000000000000000000081525081526020016040518060400160405280600881526020017f636172616d656c2000000000000000000000000000000000000000000000000081525081526020016040518060400160405280600681526020017f706c61696e200000000000000000000000000000000000000000000000000000815250815250600c906005620001ca929190620007fe565b506040518060a001604052806040518060400160405280600681526020017f6c6174746520000000000000000000000000000000000000000000000000000081525081526020016040518060400160405280600b81526020017f63617070756363696e6f2000000000000000000000000000000000000000000081525081526020016040518060400160405280600981526020017f657370726573736f20000000000000000000000000000000000000000000000081525081526020016040518060400160405280600a81526020017f6d616363686961746f200000000000000000000000000000000000000000000081525081526020016040518060400160405280600681526020017f6d6f636861200000000000000000000000000000000000000000000000000000815250815250600d9060056200030d929190620007fe565b506040518060a001604052806040518060400160405280600981526020017f657874726120686f74000000000000000000000000000000000000000000000081525081526020016040518060400160405280600d81526020017f2077697468203225206d696c6b0000000000000000000000000000000000000081525081526020016040518060400160405280600a81526020017f65787472612073686f740000000000000000000000000000000000000000000081525081526020016040518060400160405280600d81526020017f77697468206f6174206d696c6b0000000000000000000000000000000000000081525081526020016040518060400160405280600481526020017f6963656400000000000000000000000000000000000000000000000000000000815250815250600e90600562000450929190620007fe565b506040518060a001604052806040518060400160405280600781526020017f234646384639310000000000000000000000000000000000000000000000000081525081526020016040518060400160405280600781526020017f234543443545330000000000000000000000000000000000000000000000000081525081526020016040518060400160405280600781526020017f233846434143410000000000000000000000000000000000000000000000000081525081526020016040518060400160405280600781526020017f234434443437390000000000000000000000000000000000000000000000000081525081526020016040518060400160405280600681526020017f4543454145340000000000000000000000000000000000000000000000000000815250815250600f90600562000593929190620007fe565b50348015620005a157600080fd5b506040518060400160405280601881526020017f796f757220736e6f6f747920636f66666565206f7264657200000000000000008152506040518060400160405280600481526020017f434f4646000000000000000000000000000000000000000000000000000000008152508160009080519060200190620006269291906200076d565b5080600190805190602001906200063f9291906200076d565b5050506200068d6040518060400160405280601881526020017f54686973206973206d79204e465420636f6e74726163742e0000000000000000815250620006a160201b620014ff1760201c565b62000a1f565b600081600001549050919050565b6200074181604051602401620006b8919062000933565b6040516020818303038152906040527f41304fac000000000000000000000000000000000000000000000000000000007bffffffffffffffffffffffffffffffffffffffffffffffffffffffff19166020820180517bffffffffffffffffffffffffffffffffffffffffffffffffffffffff83818316178352505050506200074460201b60201c565b50565b60008151905060006a636f6e736f6c652e6c6f679050602083016000808483855afa5050505050565b8280546200077b90620009a9565b90600052602060002090601f0160209004810192826200079f5760008555620007eb565b82601f10620007ba57805160ff1916838001178555620007eb565b82800160010185558215620007eb579182015b82811115620007ea578251825591602001919060010190620007cd565b5b509050620007fa919062000865565b5090565b82805482825590600052602060002090810192821562000852579160200282015b8281111562000851578251829080519060200190620008409291906200076d565b50916020019190600101906200081f565b5b50905062000861919062000884565b5090565b5b808211156200088057600081600090555060010162000866565b5090565b5b80821115620008a857600081816200089e9190620008ac565b5060010162000885565b5090565b508054620008ba90620009a9565b6000825580601f10620008ce5750620008ef565b601f016020900490600052602060002090810190620008ee919062000865565b5b50565b6000620008ff8262000957565b6200090b818562000962565b93506200091d81856020860162000973565b620009288162000a0e565b840191505092915050565b600060208201905081810360008301526200094f8184620008f2565b905092915050565b600081519050919050565b600082825260208201905092915050565b60005b838110156200099357808201518184015260208101905062000976565b83811115620009a3576000848401525b50505050565b60006002820490506001821680620009c257607f821691505b60208210811415620009d957620009d8620009df565b5b50919050565b7f4e487b7100000000000000000000000000000000000000000000000000000000600052602260045260246000fd5b6000601f19601f8301169050919050565b613cb38062000a2f6000396000f3fe608060405234801561001057600080fd5b506004361061012c5760003560e01c80636352211e116100ad578063b88d4fde11610071578063b88d4fde14610369578063c575757a14610385578063c87b56dd146103b5578063de9d132f146103e5578063e985e9c5146103ef5761012c565b80636352211e1461029f57806370a08231146102cf57806395d89b41146102ff578063a22cb4651461031d578063b187301f146103395761012c565b80632de38d68116100f45780632de38d68146101e757806342842e0e14610217578063498e896214610233578063514dc8c6146102515780635db30bb1146102815761012c565b806301ffc9a71461013157806306fdde0314610161578063081812fc1461017f578063095ea7b3146101af57806323b872dd146101cb575b600080fd5b61014b60048036038101906101469190612820565b61041f565b60405161015891906134fe565b60405180910390f35b610169610501565b6040516101769190613519565b60405180910390f35b61019960048036038101906101949190612872565b610593565b6040516101a6919061346e565b60405180910390f35b6101c960048036038101906101c491906127e4565b610618565b005b6101e560048036038101906101e091906126de565b610730565b005b61020160048036038101906101fc9190612872565b610790565b60405161020e9190613519565b60405180910390f35b610231600480360381019061022c91906126de565b6108ae565b005b61023b6108ce565b60405161024891906137c9565b60405180910390f35b61026b60048036038101906102669190612872565b6108d8565b6040516102789190613519565b60405180910390f35b6102896109f6565b60405161029691906137c9565b60405180910390f35b6102b960048036038101906102b49190612872565b610a00565b6040516102c6919061346e565b60405180910390f35b6102e960048036038101906102e49190612679565b610ab2565b6040516102f691906137c9565b60405180910390f35b610307610b6a565b6040516103149190613519565b60405180910390f35b610337600480360381019061033291906127a8565b610bfc565b005b610353600480360381019061034e9190612872565b610d7d565b6040516103609190613519565b60405180910390f35b610383600480360381019061037e919061272d565b610e9b565b005b61039f600480360381019061039a9190612872565b610efd565b6040516103ac9190613519565b60405180910390f35b6103cf60048036038101906103ca9190612872565b61101b565b6040516103dc9190613519565b60405180910390f35b6103ed61116d565b005b610409600480360381019061040491906126a2565b61145d565b60405161041691906134fe565b60405180910390f35b60007f80ac58cd000000000000000000000000000000000000000000000000000000007bffffffffffffffffffffffffffffffffffffffffffffffffffffffff1916827bffffffffffffffffffffffffffffffffffffffffffffffffffffffff191614806104ea57507f5b5e139f000000000000000000000000000000000000000000000000000000007bffffffffffffffffffffffffffffffffffffffffffffffffffffffff1916827bffffffffffffffffffffffffffffffffffffffffffffffffffffffff1916145b806104fa57506104f982611598565b5b9050919050565b60606000805461051090613a68565b80601f016020809104026020016040519081016040528092919081815260200182805461053c90613a68565b80156105895780601f1061055e57610100808354040283529160200191610589565b820191906000526020600020905b81548152906001019060200180831161056c57829003601f168201915b5050505050905090565b600061059e82611602565b6105dd576040517f08c379a00000000000000000000000000000000000000000000000000000000081526004016105d490613709565b60405180910390fd5b6004600083815260200190815260200160002060009054906101000a900473ffffffffffffffffffffffffffffffffffffffff169050919050565b600061062382610a00565b90508073ffffffffffffffffffffffffffffffffffffffff168373ffffffffffffffffffffffffffffffffffffffff161415610694576040517f08c379a000000000000000000000000000000000000000000000000000000000815260040161068b90613769565b60405180910390fd5b8073ffffffffffffffffffffffffffffffffffffffff166106b361166e565b73ffffffffffffffffffffffffffffffffffffffff1614806106e257506106e1816106dc61166e565b61145d565b5b610721576040517f08c379a000000000000000000000000000000000000000000000000000000000815260040161071890613649565b60405180910390fd5b61072b8383611676565b505050565b61074161073b61166e565b8261172f565b610780576040517f08c379a000000000000000000000000000000000000000000000000000000000815260040161077790613789565b60405180910390fd5b61078b83838361180d565b505050565b606060006107c46107a084611a69565b6040516020016107b09190613408565b604051602081830303815290604052611c16565b9050600c80549050816107d79190613ae3565b9050600c8181548110610813577f4e487b7100000000000000000000000000000000000000000000000000000000600052603260045260246000fd5b90600052602060002001805461082890613a68565b80601f016020809104026020016040519081016040528092919081815260200182805461085490613a68565b80156108a15780601f10610876576101008083540402835291602001916108a1565b820191906000526020600020905b81548152906001019060200180831161088457829003601f168201915b5050505050915050919050565b6108c983838360405180602001604052806000815250610e9b565b505050565b6000600854905090565b6060600061090c6108e884611a69565b6040516020016108f8919061344c565b604051602081830303815290604052611c16565b9050600f805490508161091f9190613ae3565b9050600f818154811061095b577f4e487b7100000000000000000000000000000000000000000000000000000000600052603260045260246000fd5b90600052602060002001805461097090613a68565b80601f016020809104026020016040519081016040528092919081815260200182805461099c90613a68565b80156109e95780601f106109be576101008083540402835291602001916109e9565b820191906000526020600020905b8154815290600101906020018083116109cc57829003601f168201915b5050505050915050919050565b6000600754905090565b6000806002600084815260200190815260200160002060009054906101000a900473ffffffffffffffffffffffffffffffffffffffff169050600073ffffffffffffffffffffffffffffffffffffffff168173ffffffffffffffffffffffffffffffffffffffff161415610aa9576040517f08c379a0000000000000000000000000000000000000000000000000000000008152600401610aa090613689565b60405180910390fd5b80915050919050565b60008073ffffffffffffffffffffffffffffffffffffffff168273ffffffffffffffffffffffffffffffffffffffff161415610b23576040517f08c379a0000000000000000000000000000000000000000000000000000000008152600401610b1a90613669565b60405180910390fd5b600360008373ffffffffffffffffffffffffffffffffffffffff1673ffffffffffffffffffffffffffffffffffffffff168152602001908152602001600020549050919050565b606060018054610b7990613a68565b80601f0160208091040260200160405190810160405280929190818152602001828054610ba590613a68565b8015610bf25780601f10610bc757610100808354040283529160200191610bf2565b820191906000526020600020905b815481529060010190602001808311610bd557829003601f168201915b5050505050905090565b610c0461166e565b73ffffffffffffffffffffffffffffffffffffffff168273ffffffffffffffffffffffffffffffffffffffff161415610c72576040517f08c379a0000000000000000000000000000000000000000000000000000000008152600401610c6990613609565b60405180910390fd5b8060056000610c7f61166e565b73ffffffffffffffffffffffffffffffffffffffff1673ffffffffffffffffffffffffffffffffffffffff16815260200190815260200160002060008473ffffffffffffffffffffffffffffffffffffffff1673ffffffffffffffffffffffffffffffffffffffff16815260200190815260200160002060006101000a81548160ff0219169083151502179055508173ffffffffffffffffffffffffffffffffffffffff16610d2c61166e565b73ffffffffffffffffffffffffffffffffffffffff167f17307eab39ab6107e8899845ad3d59bd9653f200f220920489ca2b5937696c3183604051610d7191906134fe565b60405180910390a35050565b60606000610db1610d8d84611a69565b604051602001610d9d91906133a1565b604051602081830303815290604052611c16565b9050600d8054905081610dc49190613ae3565b9050600d8181548110610e00577f4e487b7100000000000000000000000000000000000000000000000000000000600052603260045260246000fd5b906000526020600020018054610e1590613a68565b80601f0160208091040260200160405190810160405280929190818152602001828054610e4190613a68565b8015610e8e5780601f10610e6357610100808354040283529160200191610e8e565b820191906000526020600020905b815481529060010190602001808311610e7157829003601f168201915b5050505050915050919050565b610eac610ea661166e565b8361172f565b610eeb576040517f08c379a0000000000000000000000000000000000000000000000000000000008152600401610ee290613789565b60405180910390fd5b610ef784848484611c49565b50505050565b60606000610f31610f0d84611a69565b604051602001610f1d919061337f565b604051602081830303815290604052611c16565b9050600e8054905081610f449190613ae3565b9050600e8181548110610f80577f4e487b7100000000000000000000000000000000000000000000000000000000600052603260045260246000fd5b906000526020600020018054610f9590613a68565b80601f0160208091040260200160405190810160405280929190818152602001828054610fc190613a68565b801561100e5780601f10610fe35761010080835404028352916020019161100e565b820191906000526020600020905b815481529060010190602001808311610ff157829003601f168201915b5050505050915050919050565b606061102682611602565b611065576040517f08c379a000000000000000000000000000000000000000000000000000000000815260040161105c906136e9565b60405180910390fd5b600060066000848152602001908152602001600020805461108590613a68565b80601f01602080910402602001604051908101604052809291908181526020018280546110b190613a68565b80156110fe5780601f106110d3576101008083540402835291602001916110fe565b820191906000526020600020905b8154815290600101906020018083116110e157829003601f168201915b50505050509050600061110f611ca5565b9050600081511415611125578192505050611168565b60008251111561115a5780826040516020016111429291906132e1565b60405160208183030381529060405292505050611168565b61116384611cbc565b925050505b919050565b6111ae6040518060400160405280600d81526020017f63757272656e744d696e64496400000000000000000000000000000000000000815250600854611d63565b60006111ba60096114f1565b90506111fb6040518060400160405280600981526020017f6e65774974656d4964000000000000000000000000000000000000000000000081525082611d63565b600754811061123f576040517f08c379a0000000000000000000000000000000000000000000000000000000008152600401611236906137a9565b60405180910390fd5b600061124a82610790565b9050600061125783610d7d565b9050600061126484610efd565b9050600083838360405160200161127d93929190613305565b60405160208183030381529060405290506000611299866108d8565b90506000600a82600b856040516020016112b69493929190613336565b604051602081830303815290604052905060006112fb846112d684611dff565b6040516020016112e79291906133c3565b604051602081830303815290604052611dff565b9050600081604051602001611310919061342a565b604051602081830303815290604052905061135f6040518060400160405280601581526020017f0a2d2d2d2d2d2d2d2d2d2d2d2d2d2d2d2d2d2d2d2d00000000000000000000008152506114ff565b611368816114ff565b6113a66040518060400160405280601581526020017f2d2d2d2d2d2d2d2d2d2d2d2d2d2d2d2d2d2d2d2d0a00000000000000000000008152506114ff565b6113b0338a611fbd565b6113ba8982611fdb565b6113c4600961204f565b60016008546113d3919061389d565b6008819055506114196040518060400160405280601581526020017f4d696e74656420616e204e4654207720494420257300000000000000000000008152508a33612065565b7febb98688741ffa4c7589bf325de30cf7becb63de567842e1ccdb6cb949fdc82c338a60405161144a9291906134d5565b60405180910390a1505050505050505050565b6000600560008473ffffffffffffffffffffffffffffffffffffffff1673ffffffffffffffffffffffffffffffffffffffff16815260200190815260200160002060008373ffffffffffffffffffffffffffffffffffffffff1673ffffffffffffffffffffffffffffffffffffffff16815260200190815260200160002060009054906101000a900460ff16905092915050565b600081600001549050919050565b611595816040516024016115139190613519565b6040516020818303038152906040527f41304fac000000000000000000000000000000000000000000000000000000007bffffffffffffffffffffffffffffffffffffffffffffffffffffffff19166020820180517bffffffffffffffffffffffffffffffffffffffffffffffffffffffff8381831617835250505050612104565b50565b60007f01ffc9a7000000000000000000000000000000000000000000000000000000007bffffffffffffffffffffffffffffffffffffffffffffffffffffffff1916827bffffffffffffffffffffffffffffffffffffffffffffffffffffffff1916149050919050565b60008073ffffffffffffffffffffffffffffffffffffffff166002600084815260200190815260200160002060009054906101000a900473ffffffffffffffffffffffffffffffffffffffff1673ffffffffffffffffffffffffffffffffffffffff1614159050919050565b600033905090565b816004600083815260200190815260200160002060006101000a81548173ffffffffffffffffffffffffffffffffffffffff021916908373ffffffffffffffffffffffffffffffffffffffff160217905550808273ffffffffffffffffffffffffffffffffffffffff166116e983610a00565b73ffffffffffffffffffffffffffffffffffffffff167f8c5be1e5ebec7d5bd14f71427d1e84f3dd0314c0f7b2291e5b200ac8c7c3b92560405160405180910390a45050565b600061173a82611602565b611779576040517f08c379a000000000000000000000000000000000000000000000000000000000815260040161177090613629565b60405180910390fd5b600061178483610a00565b90508073ffffffffffffffffffffffffffffffffffffffff168473ffffffffffffffffffffffffffffffffffffffff1614806117f357508373ffffffffffffffffffffffffffffffffffffffff166117db84610593565b73ffffffffffffffffffffffffffffffffffffffff16145b806118045750611803818561145d565b5b91505092915050565b8273ffffffffffffffffffffffffffffffffffffffff1661182d82610a00565b73ffffffffffffffffffffffffffffffffffffffff1614611883576040517f08c379a000000000000000000000000000000000000000000000000000000000815260040161187a90613729565b60405180910390fd5b600073ffffffffffffffffffffffffffffffffffffffff168273ffffffffffffffffffffffffffffffffffffffff1614156118f3576040517f08c379a00000000000000000000000000000000000000000000000000000000081526004016118ea906135e9565b60405180910390fd5b6118fe83838361212d565b611909600082611676565b6001600360008573ffffffffffffffffffffffffffffffffffffffff1673ffffffffffffffffffffffffffffffffffffffff1681526020019081526020016000206000828254611959919061397e565b925050819055506001600360008473ffffffffffffffffffffffffffffffffffffffff1673ffffffffffffffffffffffffffffffffffffffff16815260200190815260200160002060008282546119b0919061389d565b92505081905550816002600083815260200190815260200160002060006101000a81548173ffffffffffffffffffffffffffffffffffffffff021916908373ffffffffffffffffffffffffffffffffffffffff160217905550808273ffffffffffffffffffffffffffffffffffffffff168473ffffffffffffffffffffffffffffffffffffffff167fddf252ad1be2c89b69c2b068fc378daa952ba7f163c4a11628f55a4df523b3ef60405160405180910390a4505050565b60606000821415611ab1576040518060400160405280600181526020017f30000000000000000000000000000000000000000000000000000000000000008152509050611c11565b600082905060005b60008214611ae3578080611acc90613a9a565b915050600a82611adc91906138f3565b9150611ab9565b60008167ffffffffffffffff811115611b25577f4e487b7100000000000000000000000000000000000000000000000000000000600052604160045260246000fd5b6040519080825280601f01601f191660200182016040528015611b575781602001600182028036833780820191505090505b5090505b60008514611c0a57600182611b70919061397e565b9150600a85611b7f9190613ae3565b6030611b8b919061389d565b60f81b818381518110611bc7577f4e487b7100000000000000000000000000000000000000000000000000000000600052603260045260246000fd5b60200101907effffffffffffffffffffffffffffffffffffffffffffffffffffffffffffff1916908160001a905350600a85611c0391906138f3565b9450611b5b565b8093505050505b919050565b600081604051602001611c2991906132ca565b6040516020818303038152906040528051906020012060001c9050919050565b611c5484848461180d565b611c6084848484612132565b611c9f576040517f08c379a0000000000000000000000000000000000000000000000000000000008152600401611c96906135a9565b60405180910390fd5b50505050565b606060405180602001604052806000815250905090565b6060611cc782611602565b611d06576040517f08c379a0000000000000000000000000000000000000000000000000000000008152600401611cfd90613749565b60405180910390fd5b6000611d10611ca5565b90506000815111611d305760405180602001604052806000815250611d5b565b80611d3a84611a69565b604051602001611d4b9291906132e1565b6040516020818303038152906040525b915050919050565b611dfb8282604051602401611d7992919061353b565b6040516020818303038152906040527f9710a9d0000000000000000000000000000000000000000000000000000000007bffffffffffffffffffffffffffffffffffffffffffffffffffffffff19166020820180517bffffffffffffffffffffffffffffffffffffffffffffffffffffffff8381831617835250505050612104565b5050565b60606000825190506000811415611e285760405180602001604052806000815250915050611fb8565b60006003600283611e39919061389d565b611e4391906138f3565b6004611e4f9190613924565b90506000602082611e60919061389d565b67ffffffffffffffff811115611e9f577f4e487b7100000000000000000000000000000000000000000000000000000000600052604160045260246000fd5b6040519080825280601f01601f191660200182016040528015611ed15781602001600182028036833780820191505090505b5090506000604051806060016040528060408152602001613c3e604091399050600181016020830160005b86811015611f755760038101905062ffffff818a015116603f8160121c168401518060081b905060ff603f83600c1c1686015116810190508060081b905060ff603f8360061c1686015116810190508060081b905060ff603f831686015116810190508060e01b90508084526004840193505050611efc565b506003860660018114611f8f5760028114611f9f57611faa565b613d3d60f01b6002830352611faa565b603d60f81b60018303525b508484525050819450505050505b919050565b611fd78282604051806020016040528060008152506122c9565b5050565b611fe482611602565b612023576040517f08c379a000000000000000000000000000000000000000000000000000000000815260040161201a906136a9565b60405180910390fd5b8060066000848152602001908152602001600020908051906020019061204a929190612505565b505050565b6001816000016000828254019250508190555050565b6120ff83838360405160240161207d9392919061356b565b6040516020818303038152906040527fe3849f79000000000000000000000000000000000000000000000000000000007bffffffffffffffffffffffffffffffffffffffffffffffffffffffff19166020820180517bffffffffffffffffffffffffffffffffffffffffffffffffffffffff8381831617835250505050612104565b505050565b60008151905060006a636f6e736f6c652e6c6f679050602083016000808483855afa5050505050565b505050565b60006121538473ffffffffffffffffffffffffffffffffffffffff16612324565b156122bc578373ffffffffffffffffffffffffffffffffffffffff1663150b7a0261217c61166e565b8786866040518563ffffffff1660e01b815260040161219e9493929190613489565b602060405180830381600087803b1580156121b857600080fd5b505af19250505080156121e957506040513d601f19601f820116820180604052508101906121e69190612849565b60015b61226c573d8060008114612219576040519150601f19603f3d011682016040523d82523d6000602084013e61221e565b606091505b50600081511415612264576040517f08c379a000000000000000000000000000000000000000000000000000000000815260040161225b906135a9565b60405180910390fd5b805181602001fd5b63150b7a0260e01b7bffffffffffffffffffffffffffffffffffffffffffffffffffffffff1916817bffffffffffffffffffffffffffffffffffffffffffffffffffffffff1916149150506122c1565b600190505b949350505050565b6122d38383612337565b6122e06000848484612132565b61231f576040517f08c379a0000000000000000000000000000000000000000000000000000000008152600401612316906135a9565b60405180910390fd5b505050565b600080823b905060008111915050919050565b600073ffffffffffffffffffffffffffffffffffffffff168273ffffffffffffffffffffffffffffffffffffffff1614156123a7576040517f08c379a000000000000000000000000000000000000000000000000000000000815260040161239e906136c9565b60405180910390fd5b6123b081611602565b156123f0576040517f08c379a00000000000000000000000000000000000000000000000000000000081526004016123e7906135c9565b60405180910390fd5b6123fc6000838361212d565b6001600360008473ffffffffffffffffffffffffffffffffffffffff1673ffffffffffffffffffffffffffffffffffffffff168152602001908152602001600020600082825461244c919061389d565b92505081905550816002600083815260200190815260200160002060006101000a81548173ffffffffffffffffffffffffffffffffffffffff021916908373ffffffffffffffffffffffffffffffffffffffff160217905550808273ffffffffffffffffffffffffffffffffffffffff16600073ffffffffffffffffffffffffffffffffffffffff167fddf252ad1be2c89b69c2b068fc378daa952ba7f163c4a11628f55a4df523b3ef60405160405180910390a45050565b82805461251190613a68565b90600052602060002090601f016020900481019282612533576000855561257a565b82601f1061254c57805160ff191683800117855561257a565b8280016001018555821561257a579182015b8281111561257957825182559160200191906001019061255e565b5b509050612587919061258b565b5090565b5b808211156125a457600081600090555060010161258c565b5090565b60006125bb6125b684613815565b6137e4565b9050828152602081018484840111156125d357600080fd5b6125de848285613a26565b509392505050565b6000813590506125f581613be1565b92915050565b60008135905061260a81613bf8565b92915050565b60008135905061261f81613c0f565b92915050565b60008151905061263481613c0f565b92915050565b600082601f83011261264b57600080fd5b813561265b8482602086016125a8565b91505092915050565b60008135905061267381613c26565b92915050565b60006020828403121561268b57600080fd5b6000612699848285016125e6565b91505092915050565b600080604083850312156126b557600080fd5b60006126c3858286016125e6565b92505060206126d4858286016125e6565b9150509250929050565b6000806000606084860312156126f357600080fd5b6000612701868287016125e6565b9350506020612712868287016125e6565b925050604061272386828701612664565b9150509250925092565b6000806000806080858703121561274357600080fd5b6000612751878288016125e6565b9450506020612762878288016125e6565b935050604061277387828801612664565b925050606085013567ffffffffffffffff81111561279057600080fd5b61279c8782880161263a565b91505092959194509250565b600080604083850312156127bb57600080fd5b60006127c9858286016125e6565b92505060206127da858286016125fb565b9150509250929050565b600080604083850312156127f757600080fd5b6000612805858286016125e6565b925050602061281685828601612664565b9150509250929050565b60006020828403121561283257600080fd5b600061284084828501612610565b91505092915050565b60006020828403121561285b57600080fd5b600061286984828501612625565b91505092915050565b60006020828403121561288457600080fd5b600061289284828501612664565b91505092915050565b6128a4816139b2565b82525050565b6128b3816139c4565b82525050565b60006128c48261385a565b6128ce8185613870565b93506128de818560208601613a35565b6128e781613bd0565b840191505092915050565b60006128fd82613865565b6129078185613881565b9350612917818560208601613a35565b61292081613bd0565b840191505092915050565b600061293682613865565b6129408185613892565b9350612950818560208601613a35565b80840191505092915050565b6000815461296981613a68565b6129738186613892565b9450600182166000811461298e576001811461299f576129d2565b60ff198316865281860193506129d2565b6129a885613845565b60005b838110156129ca578154818901526001820191506020810190506129ab565b838801955050505b50505092915050565b60006129e8603283613881565b91507f4552433732313a207472616e7366657220746f206e6f6e20455243373231526560008301527f63656976657220696d706c656d656e74657200000000000000000000000000006020830152604082019050919050565b6000612a4e601c83613881565b91507f4552433732313a20746f6b656e20616c7265616479206d696e746564000000006000830152602082019050919050565b6000612a8e600a83613892565b91507f54484952445f574f5244000000000000000000000000000000000000000000006000830152600a82019050919050565b6000612ace602483613881565b91507f4552433732313a207472616e7366657220746f20746865207a65726f2061646460008301527f72657373000000000000000000000000000000000000000000000000000000006020830152604082019050919050565b6000612b34601983613881565b91507f4552433732313a20617070726f766520746f2063616c6c6572000000000000006000830152602082019050919050565b6000612b74606383613892565b91507f222c20226465736372697074696f6e223a20224120686967686c79206163636c60008301527f61696d656420636f6c6c656374696f6e206f6620737175617265732e222c202260208301527f696d616765223a2022646174613a696d6167652f7376672b786d6c3b6261736560408301527f36342c00000000000000000000000000000000000000000000000000000000006060830152606382019050919050565b6000612c26600b83613892565b91507f5345434f4e445f574f52440000000000000000000000000000000000000000006000830152600b82019050919050565b6000612c66602c83613881565b91507f4552433732313a206f70657261746f7220717565727920666f72206e6f6e657860008301527f697374656e7420746f6b656e00000000000000000000000000000000000000006020830152604082019050919050565b6000612ccc600d83613892565b91507f3c2f746578743e3c2f7376673e000000000000000000000000000000000000006000830152600d82019050919050565b6000612d0c603883613881565b91507f4552433732313a20617070726f76652063616c6c6572206973206e6f74206f7760008301527f6e6572206e6f7220617070726f76656420666f7220616c6c00000000000000006020830152604082019050919050565b6000612d72602a83613881565b91507f4552433732313a2062616c616e636520717565727920666f7220746865207a6560008301527f726f2061646472657373000000000000000000000000000000000000000000006020830152604082019050919050565b6000612dd8602983613881565b91507f4552433732313a206f776e657220717565727920666f72206e6f6e657869737460008301527f656e7420746f6b656e00000000000000000000000000000000000000000000006020830152604082019050919050565b6000612e3e602e83613881565b91507f45524337323155524953746f726167653a2055524920736574206f66206e6f6e60008301527f6578697374656e7420746f6b656e0000000000000000000000000000000000006020830152604082019050919050565b6000612ea4600283613892565b91507f227d0000000000000000000000000000000000000000000000000000000000006000830152600282019050919050565b6000612ee4602083613881565b91507f4552433732313a206d696e7420746f20746865207a65726f20616464726573736000830152602082019050919050565b6000612f24603183613881565b91507f45524337323155524953746f726167653a2055524920717565727920666f722060008301527f6e6f6e6578697374656e7420746f6b656e0000000000000000000000000000006020830152604082019050919050565b6000612f8a602c83613881565b91507f4552433732313a20617070726f76656420717565727920666f72206e6f6e657860008301527f697374656e7420746f6b656e00000000000000000000000000000000000000006020830152604082019050919050565b6000612ff0602983613881565b91507f4552433732313a207472616e73666572206f6620746f6b656e2074686174206960008301527f73206e6f74206f776e00000000000000000000000000000000000000000000006020830152604082019050919050565b6000613056602f83613881565b91507f4552433732314d657461646174613a2055524920717565727920666f72206e6f60008301527f6e6578697374656e7420746f6b656e00000000000000000000000000000000006020830152604082019050919050565b60006130bc600a83613892565b91507f7b226e616d65223a2022000000000000000000000000000000000000000000006000830152600a82019050919050565b60006130fc602183613881565b91507f4552433732313a20617070726f76616c20746f2063757272656e74206f776e6560008301527f72000000000000000000000000000000000000000000000000000000000000006020830152604082019050919050565b6000613162600a83613892565b91507f46495253545f574f5244000000000000000000000000000000000000000000006000830152600a82019050919050565b60006131a2601d83613892565b91507f646174613a6170706c69636174696f6e2f6a736f6e3b6261736536342c0000006000830152601d82019050919050565b60006131e2603183613881565b91507f4552433732313a207472616e736665722063616c6c6572206973206e6f74206f60008301527f776e6572206e6f7220617070726f7665640000000000000000000000000000006020830152604082019050919050565b6000613248600583613892565b91507f434f4c4f520000000000000000000000000000000000000000000000000000006000830152600582019050919050565b6000613288601183613881565b91507f4d617820746f6b656e73206d696e7465640000000000000000000000000000006000830152602082019050919050565b6132c481613a1c565b82525050565b60006132d6828461292b565b915081905092915050565b60006132ed828561292b565b91506132f9828461292b565b91508190509392505050565b6000613311828661292b565b915061331d828561292b565b9150613329828461292b565b9150819050949350505050565b6000613342828761295c565b915061334e828661292b565b915061335a828561295c565b9150613366828461292b565b915061337182612cbf565b915081905095945050505050565b600061338a82612a81565b9150613396828461292b565b915081905092915050565b60006133ac82612c19565b91506133b8828461292b565b915081905092915050565b60006133ce826130af565b91506133da828561292b565b91506133e582612b67565b91506133f1828461292b565b91506133fc82612e97565b91508190509392505050565b600061341382613155565b915061341f828461292b565b915081905092915050565b600061343582613195565b9150613441828461292b565b915081905092915050565b60006134578261323b565b9150613463828461292b565b915081905092915050565b6000602082019050613483600083018461289b565b92915050565b600060808201905061349e600083018761289b565b6134ab602083018661289b565b6134b860408301856132bb565b81810360608301526134ca81846128b9565b905095945050505050565b60006040820190506134ea600083018561289b565b6134f760208301846132bb565b9392505050565b600060208201905061351360008301846128aa565b92915050565b6000602082019050818103600083015261353381846128f2565b905092915050565b6000604082019050818103600083015261355581856128f2565b905061356460208301846132bb565b9392505050565b6000606082019050818103600083015261358581866128f2565b905061359460208301856132bb565b6135a1604083018461289b565b949350505050565b600060208201905081810360008301526135c2816129db565b9050919050565b600060208201905081810360008301526135e281612a41565b9050919050565b6000602082019050818103600083015261360281612ac1565b9050919050565b6000602082019050818103600083015261362281612b27565b9050919050565b6000602082019050818103600083015261364281612c59565b9050919050565b6000602082019050818103600083015261366281612cff565b9050919050565b6000602082019050818103600083015261368281612d65565b9050919050565b600060208201905081810360008301526136a281612dcb565b9050919050565b600060208201905081810360008301526136c281612e31565b9050919050565b600060208201905081810360008301526136e281612ed7565b9050919050565b6000602082019050818103600083015261370281612f17565b9050919050565b6000602082019050818103600083015261372281612f7d565b9050919050565b6000602082019050818103600083015261374281612fe3565b9050919050565b6000602082019050818103600083015261376281613049565b9050919050565b60006020820190508181036000830152613782816130ef565b9050919050565b600060208201905081810360008301526137a2816131d5565b9050919050565b600060208201905081810360008301526137c28161327b565b9050919050565b60006020820190506137de60008301846132bb565b92915050565b6000604051905081810181811067ffffffffffffffff8211171561380b5761380a613ba1565b5b8060405250919050565b600067ffffffffffffffff8211156138305761382f613ba1565b5b601f19601f8301169050602081019050919050565b60008190508160005260206000209050919050565b600081519050919050565b600081519050919050565b600082825260208201905092915050565b600082825260208201905092915050565b600081905092915050565b60006138a882613a1c565b91506138b383613a1c565b9250827fffffffffffffffffffffffffffffffffffffffffffffffffffffffffffffffff038211156138e8576138e7613b14565b5b828201905092915050565b60006138fe82613a1c565b915061390983613a1c565b92508261391957613918613b43565b5b828204905092915050565b600061392f82613a1c565b915061393a83613a1c565b9250817fffffffffffffffffffffffffffffffffffffffffffffffffffffffffffffffff048311821515161561397357613972613b14565b5b828202905092915050565b600061398982613a1c565b915061399483613a1c565b9250828210156139a7576139a6613b14565b5b828203905092915050565b60006139bd826139fc565b9050919050565b60008115159050919050565b60007fffffffff0000000000000000000000000000000000000000000000000000000082169050919050565b600073ffffffffffffffffffffffffffffffffffffffff82169050919050565b6000819050919050565b82818337600083830152505050565b60005b83811015613a53578082015181840152602081019050613a38565b83811115613a62576000848401525b50505050565b60006002820490506001821680613a8057607f821691505b60208210811415613a9457613a93613b72565b5b50919050565b6000613aa582613a1c565b91507fffffffffffffffffffffffffffffffffffffffffffffffffffffffffffffffff821415613ad857613ad7613b14565b5b600182019050919050565b6000613aee82613a1c565b9150613af983613a1c565b925082613b0957613b08613b43565b5b828206905092915050565b7f4e487b7100000000000000000000000000000000000000000000000000000000600052601160045260246000fd5b7f4e487b7100000000000000000000000000000000000000000000000000000000600052601260045260246000fd5b7f4e487b7100000000000000000000000000000000000000000000000000000000600052602260045260246000fd5b7f4e487b7100000000000000000000000000000000000000000000000000000000600052604160045260246000fd5b6000601f19601f8301169050919050565b613bea816139b2565b8114613bf557600080fd5b50565b613c01816139c4565b8114613c0c57600080fd5b50565b613c18816139d0565b8114613c2357600080fd5b50565b613c2f81613a1c565b8114613c3a57600080fd5b5056fe4142434445464748494a4b4c4d4e4f505152535455565758595a6162636465666768696a6b6c6d6e6f707172737475767778797a303132333435363738392b2fa2646970667358221220320706b87440f003a0386b729a188eec2a271facb248b86f9252a0433be349db64736f6c634300080000333c73766720786d6c6e733d27687474703a2f2f7777772e77332e6f72672f323030302f73766727207072657365727665417370656374526174696f3d27784d696e594d696e206d656574272076696577426f783d273020302033353020333530273e3c7374796c653e2e62617365207b2066696c6c3a2077686974653b20666f6e742d66616d696c793a2073657269663b20666f6e742d73697a653a20323470783b207d3c2f7374796c653e3c726563742077696474683d273130302527206865696768743d2731303025272066696c6c3d27272f3e3c7465787420783d273530252720793d273530252720636c6173733d27626173652720646f6d696e616e742d626173656c696e653d276d6964646c652720746578742d616e63686f723d276d6964646c65273e",
  "linkReferences": {},
  "deployedLinkReferences": {}
}